:100000000C945C000C9479000C9479000C947900A9
:100010000C9479000C9479000C9479000C9479007C
:100020000C9479000C9479000C9479000C9479006C
:100030000C9479000C9479000C9479000C9479005C
:100040000C946B010C9479000C9479000C94790059
:100050000C9479000C9479000C9479000C9479003C
:100060000C9479000C947900000000080002010053
:100070000003040700000000000000000000000072
:10008000250028002B0000000000240027002A0083
:10009000040404040404040402020202020203032E
:1000A0000303030301020408102040800102040836
:1000B000102001020408102011241FBECFEFD8E049
:1000C000DEBFCDBF11E0A0E0B1E0E2EDF4E002C0A0
:1000D00005900D92A831B107D9F721E0A8E1B1E070
:1000E00001C01D92A332B207E1F70E94B5010C9442
:1000F00067020C94000090E0FC01EC55FF4F249146
:1001000080579F4FFC018491882399F090E0880FDD
:10011000991FFC01EA57FF4FA591B491FC01E458E7
:10012000FF4F859194918FB7F894EC91E22BEC936B
:100130008FBF089590E0FC01E859FF4F2491FC0126
:10014000EC55FF4F3491FC01E057FF4FE491EE2353
:10015000C9F0222339F0233001F1A8F4213019F13C
:10016000223029F1F0E0EE0FFF1FE458FF4FA59178
:10017000B4918FB7F894EC91611126C030953E236D
:100180003C938FBF08952730A9F02830C9F0243060
:1001900049F7809180008F7D03C0809180008F7728
:1001A00080938000DFCF84B58F7784BDDBCF84B5AB
:1001B0008F7DFBCF8091B0008F778093B000D2CF3E
:1001C0008091B0008F7DF9CF3E2BDACF3FB7F89406
:1001D00080911F0190912001A0912101B0912201F5
:1001E00026B5A89B05C02F3F19F00196A11DB11D92
:1001F0003FBFBA2FA92F982F8827BC01CD01620FCE
:10020000711D811D911D42E0660F771F881F991F88
:100210004A95D1F708958F929F92AF92BF92CF9255
:10022000DF92EF92FF920E94E6004B015C0184E6B0
:10023000C82ED12CE12CF12C0E94E6006819790916
:100240008A099B09683E734081059105A8F321E066
:10025000C21AD108E108F10888EE880E83E0981EE2
:10026000A11CB11CC114D104E104F10429F7FF90D1
:10027000EF90DF90CF90BF90AF909F908F900895B8
:10028000EF92FF920F931F93CF93DF9380509F4F76
:10029000FC0100818AE0E82E81E0F82ED0E0C0E089
:1002A00010E0F7018081F2E0EF0EF11CB8010C2E96
:1002B00002C0759567950A94E2F761700E949A00F2
:1002C0002196C730D10569F7DF91CF911F910F912A
:1002D000FF90EF9008951F920F920FB60F92112486
:1002E0002F933F938F939F93AF93BF9380911B0165
:1002F00090911C01A0911D01B0911E0130911A0135
:1003000023E0230F2D3758F50196A11DB11D209331
:100310001A0180931B0190931C01A0931D01B093BF
:100320001E0180911F0190912001A0912101B091A7
:1003300022010196A11DB11D80931F019093200100
:10034000A0932101B0932201BF91AF919F918F9112
:100350003F912F910F900FBE0F901F90189526E898
:10036000230F0296A11DB11DD2CF789484B582606F
:1003700084BD84B5816084BD85B5826085BD85B549
:10038000816085BD80916E00816080936E001092C7
:100390008100809181008260809381008091810042
:1003A00081608093810080918000816080938000D3
:1003B0008091B10084608093B1008091B000816031
:1003C0008093B00080917A00846080937A0080915D
:1003D0007A00826080937A0080917A0081608093B5
:1003E0007A0080917A00806880937A001092C10030
:1003F000CAE0D1E008E111E0888122960E947B00EA
:100400000C171D07C9F786E00E947B0085E00E945B
:100410007B000AE010E080E0E82E80E0F82EC4E6E1
:10042000D0E08091180190911901019690931901E3
:1004300080931801B8010E943F026B010E944001A5
:1004400060E086E00E949A0061E085E00E949A00E8
:100450000E940B01C6010E94400161E086E00E94FB
:100460009A0060E085E00E949A000E940B012197AB
:10047000C1F6E114F10499F20E940000D0CF97FB7D
:10048000072E16F4009407D077FD09D00E9453027E
:1004900007FC05D03EF4909581959F4F0895709587
:1004A00061957F4F0895AA1BBB1B51E107C0AA1F8E
:1004B000BB1FA617B70710F0A61BB70B881F991F05
:1004C0005A95A9F780959095BC01CD010895F894AF
:0204D000FFCF5C
:1004D2003F065B4F666D7D077F6F0D000C000B00C2
:0804E2000A00090008000700F0
:00000001FF
