:100000000C945C000C9479000C9479000C947900A9
:100010000C9479000C9479000C9479000C9479007C
:100020000C9479000C9479000C9479000C9479006C
:100030000C9479000C9479000C9479000C9479005C
:100040000C940B010C9479000C9479000C947900B9
:100050000C9479000C9479000C9479000C9479003C
:100060000C9479000C947900000000080002010053
:100070000003040700000000000000000000000072
:10008000250028002B0000000000240027002A0083
:10009000040404040404040402020202020203032E
:1000A0000303030301020408102040800102040836
:1000B000102001020408102011241FBECFEFD8E049
:1000C000DEBFCDBF11E0A0E0B1E0E0E7F4E002C0A8
:1000D00005900D92AC31B107D9F721E0ACE1B1E068
:1000E00001C01D92A932B207E1F70E9455010C949C
:1000F00036020C94000090E0FC01EC55FF4F249177
:1001000080579F4FFC018491882399F090E0880FDD
:10011000991FFC01EA57FF4FA591B491FC01E458E7
:10012000FF4F859194918FB7F894EC91E22BEC936B
:100130008FBF089590E0FC01E859FF4F2491FC0126
:10014000EC55FF4F3491FC01E057FF4FE491EE2353
:10015000C9F0222339F0233001F1A8F4213019F13C
:10016000223029F1F0E0EE0FFF1FE458FF4FA59178
:10017000B4918FB7F894EC91611126C030953E236D
:100180003C938FBF08952730A9F02830C9F0243060
:1001900049F7809180008F7D03C0809180008F7728
:1001A00080938000DFCF84B58F7784BDDBCF84B5AB
:1001B0008F7DFBCF8091B0008F778093B000D2CF3E
:1001C0008091B0008F7DF9CF3E2BDACF3FB7F89406
:1001D0008091250190912601A0912701B0912801DD
:1001E00026B5A89B05C02F3F19F00196A11DB11D92
:1001F0003FBFBA2FA92F982F8827BC01CD01620FCE
:10020000711D811D911D42E0660F771F881F991F88
:100210004A95D1F708951F920F920FB60F921124AD
:100220002F933F938F939F93AF93BF93809121011F
:1002300090912201A0912301B091240130912001DD
:1002400023E0230F2D3758F50196A11DB11D2093F2
:1002500020018093210190932201A0932301B09368
:1002600024018091250190912601A0912701B09150
:1002700028010196A11DB11D8093250190932601AF
:10028000A0932701B0932801BF91AF919F918F91C7
:100290003F912F910F900FBE0F901F90189526E859
:1002A000230F0296A11DB11DD2CF789484B5826030
:1002B00084BD84B5816084BD85B5826085BD85B50A
:1002C000816085BD80916E00816080936E00109288
:1002D0008100809181008260809381008091810003
:1002E0008160809381008091800081608093800094
:1002F0008091B10084608093B1008091B0008160F2
:100300008093B00080917A00846080937A0080911D
:100310007A00826080937A0080917A008160809375
:100320007A0080917A00806880937A001092C100F0
:100330000EE011E0C0E0D1E0888122960E947B00AF
:100340000C171D07C9F786E00E947B0085E00E941C
:100350007B0000E010E080911E0190911F0101964A
:1003600090931F0180931E010A978CF080911C01CD
:1003700090911D0110921F0110921E0101968A306A
:1003800091050CF06EC090931D0180931C012CE12F
:10039000E22E21E0F22E38E1C32E31E0D32EF70118
:1003A000C191D1917F0161E086E00E949A0061E0F5
:1003B00085E00E949A00C25FDE4FA88090E0892EFF
:1003C00091E0992ED0E0C0E0B12CF4018081F2E000
:1003D0008F0E911CB5010C2E02C0759567950A947D
:1003E000E2F761700E949A002196C730D10569F743
:1003F000F6018081F2E0CF0ED11C60E00E949A00ED
:100400000E94E6002B013C0184E6882E912CA12C51
:10041000B12C0E94E6006419750986099709683EA7
:10042000734081059105A8F321E0821A9108A10883
:10043000B10888EE480E83E0581E611C711C8114BF
:100440009104A104B10429F7F0E2EF16F1E0FF06F0
:1004500009F0A5CF0115110509F47DCF0E94000018
:100460007ACF10921D0110921C0191CFF894FFCF0A
:100470000D000C000B000A000900080007003F06F1
:0C0480005B4F666D7D077F6F0600050076
:00000001FF
